:020000040800F2
:1000000020050020C1010008910F00088D0F000895
:100010008F0F0008CD0200087514000800000000D2
:10002000000000000000000000000000950F000824
:10003000CF02000800000000930F0008970F00088F
:10004000DB010008DB010008DB010008DB01000820
:10005000DB010008DB010008DB010008DB01000810
:10006000DB010008DB010008DB010008DB01000800
:10007000DB010008DB010008DB010008DB010008F0
:10008000DB010008DB010008DB010008DB010008E0
:10009000DB010008DB010008DB010008DB010008D0
:1000A000DB010008DB010008DB010008DB010008C0
:1000B000DB010008DB010008DB010008DB010008B0
:1000C000DB010008DB010008DB010008DB010008A0
:1000D000DB010008511400085D140008DB01000872
:1000E000DB010008DB010008DB010008DB01000880
:1000F000DB010008DB010008DB010008DB01000870
:10010000DB010008DB010008DB010008DB0100085F
:10011000DB010008DB010008DB010008DB0100084F
:10012000DB010008DB010008DB010008DB0100083F
:10013000DB010008DB010008DB010008DB0100082F
:10014000DB010008DB010008DB010008DB0100081F
:10015000DB010008DB010008DB010008691400086E
:10016000DB010008DB010008DB010008DB010008FF
:10017000DB010008DB010008DB01000800000000D3
:10018000DB010008D1020008DB010008DB010008E8
:10019000DB010008DB010008DB010008DB010008CF
:1001A000DB010008DB010008DB010008DFF80CD0F0
:1001B00000F07AF800480047B51400082005002038
:1001C0000648804706480047FEE7FEE7FEE7FEE7F1
:1001D000FEE7FEE7FEE7FEE7FEE7FEE72910000880
:1001E000AD0100082DE9F05F0546002092469B46D0
:1001F00088460646814640241BE02846414647463D
:10020000224600F041F853465A46C01A914110D395
:1002100011461846224600F028F82D1A67EB01080F
:100220004F4622460120002100F01FF817EB00097D
:100230004E41201EA4F10104DFDC484631462A4627
:100240004346BDE8F09FD2B201E000F8012B491E01
:10025000FBD270470022F6E710B513460A46044663
:100260001946FFF7F0FF204610BD202A04DB203A94
:1002700000FA02F1002070479140C2F1200320FAF9
:1002800003F3194390407047202A04DB203A21FAF7
:1002900002F00021704721FA02F3D040C2F120029F
:1002A0009140084319467047064C074D06E0E06848
:1002B00040F0010394E8070098471034AC42F6D3AD
:1002C000FFF778FF1C1600083C160008FEE7704791
:1002D000704790F83510022903D080214165012034
:1002E0007047052180F835100068016821F0010190
:1002F00001600020704700002DE9F84FDFF890B151
:1003000000224FF001084FF0030A4FF00F090BF1E4
:10031000040E00BF0B6808FA02F42340A3426ED11A
:100320004D68022D01D0122D0ED1D50800EB850CA1
:10033000DCF820505607F70E09FA07F6B5430E69A8
:10034000BE402E43CCF82060066855000F790AFAAB
:1003500005FC07F0030726EA0C06AF4037430760A9
:100360004E68012E05D0022E03D0112E01D0122E80
:100370000ED18768CE6827EA0C07AE403E43866000
:100380004668A6430C79C4F3001494403443446097
:10039000C4688E6824EA0C04AE402643C6604C68EC
:1003A000E4006FD53B4C256845F480452560246802
:1003B00022F0030504F480440094374C2E19D6F83B
:1003C000084895072F0F09FA07F5AC43334DA842AB
:1003D00001D100252EE0324DA84201D1012529E0AE
:1003E000304DA84201D1022524E02F4DA84201D171
:1003F00003251FE02D4DA84202D104251AE041E05B
:100400002B4DA84201D1052514E02A4DA84201D167
:1004100006250FE0284DA84201D107250AE0274D07
:10042000A84201D1082505E0254DA84201D10925A2
:1004300000E00A25BD402543C6F80858DBF8004017
:100440005D464E689C43F60300D51C432C60DEF8E5
:10045000004075464E689C43B60300D51C432C6093
:100460000B4D08352C684E689C43F60200D51C43A2
:100470002C60074D0C352C684E689C43B60200D5A5
:100480001C432C60521C102AFFF444AFBDE8F88FC7
:10049000003C01404438024000300140000002406E
:1004A0000004024000080240000C0240001002401C
:1004B0000014024000180240001C024000200240CC
:1004C00000240240014880687047000004000020BA
:1004D000024881680278114481607047040000205E
:1004E0000B4810B5016841F400710160016841F4E6
:1004F00080610160016841F480710160032000F0B7
:1005000077F8002000F006F800F024F8002010BD75
:10051000003C024070B50D4D04464FF47A712878C6
:10052000B1FBF0F00A490968B1FBF0F000F0E8FA1D
:1005300048B9102C07D200222146501E00F038F88E
:1005400000206C6070BD012070BD00000400002020
:10055000100000200E4808B5016841F48041016098
:10056000006800F4804000900948001F016841F0D5
:10057000805101600068002200F080500090114618
:10058000512000F015F8BDE80840512000F002B8F5
:1005900044380240002809DB00F01F02012191408D
:1005A0004009800000F1E020C0F800117047000011
:1005B000F0B40E4B1B680C46C3F30223C3F10705CE
:1005C000042D00D90425191D072901D2002300E0BC
:1005D000DB1E012606FA05F1491E214099409E4086
:1005E000761E16403143F0BC00F045BF0CED00E034
:1005F000064900F0070208684FF6FF03184040EA7A
:100600000220034A10430860704700000CED00E030
:100610000000FA052DE9F0470E46050065D0DFF829
:100620001481D8F80000F7B200F00F00B04207D2F2
:1006300088F80070D8F8000000F00F00B04254D1E4
:1006400028683D4C810712D5400703D5206840F447
:10065000E05020602878000703D5206840F460400F
:1006600020602068A96820F0F00008432060287806
:10067000C0072DD0304968680839012812D00228F7
:1006800013D0032811D00968890700292DDA2168C1
:1006900021F0030101432160FFF714FF814641F27D
:1006A000883A0EE009688903EFE709688901ECE7F9
:1006B000FFF708FFA0EB0901514502D90320BDE86F
:1006C000F0872068696800F00C00B0EB810FEFD173
:1006D000D8F80010404601F00F01B14207D9077069
:1006E000006800F00F00B04201D00120E7E7287851
:1006F000400705D52068E96820F4E05008432060F1
:100700002878000706D52068296920F4604040EA6F
:10071000C100206000F036F82168084AC1F30311D7
:10072000515CC840064908600020FFF7F3FE002036
:10073000C5E70000003C02400838024004160008EB
:10074000100000200448054900680968044AC1F304
:100750008221515CC84070471000002008380240D8
:10076000141600080448054900680968044AC1F3E2
:100770004231515CC84070471000002008380240E8
:1007800014160008154810B5006810F00C02144843
:1007900013D04110042A0FD0082A0ED10F4C241F69
:1007A0002268236802F03F025B0207D52068C0F38D
:1007B0008810A0FB010106E0084610BD2168C1F3C6
:1007C0008811A1FB00010023FFF70CFD2168C1F394
:1007D0000141491C4900B0FBF1F010BD083802404E
:1007E0000024F4002DE9F84F050076D02878DFF8D2
:1007F000F8B2BE4CC00749D0DBF800105846C1F330
:100800008101012908D00068C0F3810002280AD1C3
:10081000201D0068400206D52068800336D5686830
:100820000028E2D032E06868B0F5803F10D0B0F523
:10083000A02F206810D020F480302060206820F4A1
:10084000802020606868A0B1FFF73CFE06460CE0FF
:10085000206840F48030F4E740F480202060F7E71F
:10086000FFF730FE801B642873D820688003F7D51B
:100870000CE0FFF727FE064605E000BFFFF722FE6B
:10088000801B6428F0D820688003F7D42878DFF82C
:10089000608280074FF000093ED5DBF80010584613
:1008A00011F00C0F09D00068C0F3810002280BD1B1
:1008B0008D48001F0068400206D42068800715D5C7
:1008C000E868012809D111E0E868B8B10120C8F84A
:1008D0000000FFF7F7FD064605E002E1FFF7F2FD35
:1008E000801B0228C0D820688007F7D520682969B6
:1008F00020F0F80040EAC10020600DE0C8F8009048
:10090000FFF7E0FD064604E0FFF7DCFD801B022850
:100910001FD820688007F7D42878000722D5724EA8
:10092000744869696C3671B101210160FFF7CAFD35
:10093000074604E0FFF7C6FDC01B022809D830684F
:100940008007F7D50EE0C0F80090FFF7BBFD074623
:1009500005E083E0FFF7B6FDC01B02287ED83068B3
:100960008007F7D42878400768D5DFF87CA10027F6
:100970000AF1380ADAF80000C0000BD4DAF80010E7
:1009800041F08051CAF80010DAF80000012700F0A9
:1009900080500090584E3068C00510D4306840F444
:1009A00080703060FFF78EFD009005E0FFF78AFD54
:1009B0000099401A022851D83068C005F6D54A4E31
:1009C000A868683601280FD00528306810D020F0BC
:1009D00001003060306820F004003060A868B8B1D1
:1009E000FFF770FD00900FE0306840F00100F4E781
:1009F00040F004003060F7E7FFF764FD0099411A0A
:100A000041F28830814264D830688007F4D50EE026
:100A1000FFF758FD009007E0FFF754FD0099411AD9
:100A200041F28830814254D830688007F4D42FB125
:100A3000DAF8001021F08051CAF80010A869C0B39C
:100A4000DBF80010C1F3810102294AD00228484690
:100A500007D0C8F86000FFF735FD00E039E0054633
:100A60003AE04746C8F86000FFF72CFD064604E070
:100A7000FFF728FD801B02282BD820688001F7D4BF
:100A8000D5E907010843A96A1C4A490802EB01415C
:100A90006A6A41EA8211084395F82C1040EA016124
:100AA0001148001F016001203866FFF70BFD054665
:100AB00005E014E0FFF706FD401B022809D8206876
:100AC0008001F7D50BE000BFFFF7FCFC401B0228BC
:100AD00002D90320BDE8F88F20688001F4D40020FB
:100AE000F8E70120F6E7000008380240003802402D
:100AF00000004742800E4742007000400000FFFFA8
:100B000010B5401EB0F1807F01D3012010BD4FF021
:100B1000E02460610F21601700F0ADFC0020A061AF
:100B200007202061002010BD7047000070B50268EA
:100B300004461068D168536910F00F0F51D003F0CC
:100B4000010501F4907635435DD0C20705D0CA0592
:100B500003D5E26B42F00102E263420705D5DA07F2
:100B600003D0E26B42F00202E263820705D5DA07A6
:100B700003D0E26B42F00402E263020705D5DA0714
:100B800003D0E26B42F00802E263E26B002A34D049
:100B9000800604D5880602D5204600F085FA206834
:100BA0004069E16BC0F3801001F008010143204669
:100BB00024D000F06BFA2068416949061AD54169D2
:100BC00021F040014161606BA0B11B490165606B80
:100BD000FFF77FFB002810D0606B016DBDE870400F
:100BE000084783060FD58B060DD52046BDE870401B
:100BF00000F05ABA2046FFF797FF70BDFFF794FF49
:100C00000020E06370BD030606D50B0604D5204620
:100C1000BDE8704000F0EABB4006F3D54806F1D5C8
:100C2000D168204621F04001D160202184F839109C
:100C300000F06EF970BD00007D10000870B5040072
:100C400004D094F83900002510B106E0012070BDF1
:100C500084F83850204600F023F8242084F8390026
:100C60002068C16821F40051C160204600F068FA94
:100C70002068016921F4904101612068416921F0F7
:100C80002A0141612068C16841F40051C160E563F7
:100C9000202084F8390084F83A00002070BD00005C
:100CA000F0B587B0044614216846FFF7D3FA3A49F5
:100CB000DFF8E0C02768384A1439022301240325ED
:100CC0000726364867451CD1176847F0100717609C
:100CD000126802F0100205920A6842F001020A60EE
:100CE000096801F00101059169028DE87A00694601
:100CF000FFF702FB002211462520FFF759FC2520B3
:100D000021E0DFF89CC0674521D1234A121F1768F4
:100D100047F400371760126802F4003205920A683F
:100D200042F001020A60096801F0010105910C21FD
:100D30008DE87A006946FFF7DFFA00221146262087
:100D4000FFF736FC2620FFF725FC07B0F0BD15485D
:100D50008742FAD1106840F020001060106800F05F
:100D600020000590086840F00400086008686946A3
:100D700000F004000590C0208DE8390008200490A0
:100D80000948FFF7B9FA002211464720FFF710FC87
:100D90004720D8E7001001404438024000000240DC
:100DA00000440040001401400008024090F83A302E
:100DB000202B22D1F9B1F2B190F83830012B1CD0A0
:100DC00081628285C2850021C163222280F83A2097
:100DD00080F838100168CA6842F48072CA600168FD
:100DE0004A6942F001024A610068C16841F020018D
:100DF000C16000207047012070470220704700004A
:100E0000F0B52E4C2E4D016801222E4BA5F10C069B
:100E1000A14216D105F10C042778322F08D1002108
:100E200014F801C006F801C0491C0C29F8DB5A70FF
:100E3000332F06D10021675C6F54491C0C29FADB63
:100E40009A701F4F204C0168183FA1421CD107F136
:100E5000300494F800C0BCF1310F09D15FF00001FB
:100E600014F801E007F801E0491C0C29F8DB1A70BE
:100E7000BCF1330F08D1002114F801C005F801C0FE
:100E8000491C0C29F8DB9A7000681049884214D17B
:100E90000B4924310C78312C06D100200D5C3D54D7
:100EA000401C0C28FADB1A70322C06D100200C5C96
:100EB0003454401C0C28FADB5A70F0BD001001407D
:100EC000EC0000200000002000440040001401401D
:100ED00090F83930202B18D1A9B1A2B190F8383050
:100EE000012B12D001628284C2840021C1632122BD
:100EF00080F8392080F838100068C16841F080011E
:100F0000C160002070470120704702207047000038
:100F100070B5194C0168194B0022A1420AD1184C36
:100F2000002104F12405665C6E546254491C0C29AE
:100F3000F9DB1A70134C0168A1420BD1104C00214F
:100F40000C3404F12405665C6E546254491C0C296F
:100F5000F9DB5A7000680C4988420BD1084900201F
:100F6000183101F124040D5C25540A54401C0C284E
:100F7000F9DB9A7070BD00000010014000000020F5
:100F8000D40000200044004000140140FEE7FEE7CA
:100F9000704770477047FFF79BBA000030B593B0B9
:100FA00030216846FFF756F914210CA8FFF752F9D3
:100FB0001B480025016841F080510160006800F085
:100FC000805011901748016821F4404141F480415C
:100FD00001600068022400F4404011900120039059
:100FE00010200490009406940820CDE90750322088
:100FF000CDE9090407200B906846FFF7F3FB0CA925
:101000000F2081E831004FF4C0500F904FF4A050F2
:10101000109001210CA8FFF7FDFA13B030BD0000BD
:1010200040380240007000401048016841F47001EF
:1010300001600F48016841F0010101600C4A002184
:101040000832116002680B4B1A400260031D0A4A05
:101050001A60026822F48022026005480C300160A8
:1010600002495806803908607047000088ED00E0AA
:1010700000380240FFFFF6FE1030002410B5806BF0
:101080000021C185C184FFF74FFD10BD0168CA680A
:1010900022F49072CA6001684A6922F001024A6132
:1010A000202180F83A10704710B590F83A102229A4
:1010B00001D0022010BD8168B1F5805F11D00169B7
:1010C000002901681FD0496801F07F03816A4A1C2A
:1010D00082620B70C18D491E0904090CC18518D0AC
:1010E0002BE00269816A002A0268526805D0D2B2F8
:1010F0000A80816A491C8162ECE7C2F308020A8017
:10110000816A891CF7E74A68816A4B1C83620A700E
:10111000E0E70168CA6822F02002CA600168CA6874
:1011200022F48072CA6001684A6922F001024A61B1
:10113000202180F83A10FFF763FE002010BD000068
:101140002DE9F041044600680169E26821F440514C
:10115000114301612169A068E26908436169114393
:1011600022680843D16849F20C6399430143D16076
:1011700020684169A26921F4407111434161E2692B
:101180006425B2F5004F9748974922684FF032081E
:101190003FD08A4201D082427CD1FFF7E3FA00EBD4
:1011A000C00101EB001061688900B0FBF1F6FFF7A8
:1011B000D9FA00EBC00101EB001061688900B0FBB7
:1011C000F1F0B0FBF5F06FF01801484306EB800139
:1011D00008EB0110B0FBF5F000F0F006FFF7C2FAE3
:1011E00000EBC00101EB001061688900B0FBF1F079
:1011F000B0FBF5F006EB0016FFF7B4FA00EBC00108
:1012000001EB001061688900B0FBF1F7FFF7AAFA63
:10121000D2E08A4201D082423DD1FFF7A3FA00EB2F
:10122000C00101EB001061684900B0FBF1F0B0FBB8
:10123000F5F00601FFF796FA00EBC00101EB001094
:1012400061684900B0FBF1F7FFF78CFA00EBC001D1
:1012500001EB001061684900B0FBF1F0B0FBF5F064
:101260006FF01801484307EB800108EBC100B0FBA9
:10127000F5F000F0F80006EB4006FFF773FA00EB1C
:10128000C00101EB001061684900B0FBF1F7FFF706
:1012900069FA3CE055E0FFF755FA00EBC00101EBBD
:1012A000001061684900B0FBF1F0B0FBF5F00601F9
:1012B000FFF748FA00EBC00101EB0010616849003C
:1012C000B0FBF1F7FFF73EFA00EBC00101EB0010B5
:1012D00061684900B0FBF1F0B0FBF5F06FF0180168
:1012E000484307EB800108EBC100B0FBF5F000F0CC
:1012F000F80006EB4006FFF725FA00EBC00101EB12
:10130000001061684900B0FBF1F7FFF71BFA00EB32
:10131000C00101EB001061684900B0FBF1F0B0FBC7
:10132000F5F06FF01801484307EB800108EBC100AE
:10133000B0FBF5F000F00700216830448860BDE89C
:10134000F081FFF7FFF900EBC00101EB00106168CD
:101350008900B0FBF1F6FFF7F5F900EBC00101EBF6
:10136000001061688900B0FBF1F0B0FBF5F06FF0A0
:101370001801484306EB800108EB0110B0FBF5F0C3
:1013800000F0F006FFF7DEF900EBC00101EB001002
:1013900061688900B0FBF1F0B0FBF5F006EB0016D8
:1013A000FFF7D0F900EBC00101EB00106168890084
:1013B000B0FBF1F7FFF7C6F900EBC00101EB00103D
:1013C00061688900B0FBF1F0B0FBF5F06FF0180137
:1013D000484307EB800108EB0110B0FBF5F000F08B
:1013E0000F00A9E7001401400010014090F83910E7
:1013F000212901D0022070478168B1F5805F016A20
:101400000BD04A1C0262026809785160C18C491EE7
:101410000904090CC1840ED017E009880268C1F3E1
:101420000801516001690029016A02D0491C01626A
:10143000ECE7891CFBE70168CA6822F08002CA60F9
:101440000068C16841F04001C160002070470000A1
:101450000148FFF76BBB0000140000200148FFF7B4
:1014600065BB0000540000200148FFF75FBB00008F
:1014700094000020FEE70907090E002804DB00F1B4
:10148000E02080F80014704700F00F0000F1E02029
:1014900080F8141D704702E008C8121F08C1002A16
:1014A000FAD170477047002001E001C1121F002AE5
:1014B000FBD1704708B5FFF713F8FFF76FFD4B48F6
:1014C0000027016841F001010160016801F001019C
:1014D0000091016841F0040101600068454C00F092
:1014E00004000090424820604FF4E138C4E90187CD
:1014F0004FF00C09E760C4E90479A7612046E76171
:10150000FFF79CFB04F140063B483060C6E90187C9
:10151000F760C6E90479B7613046F761FFF78EFBE3
:1015200004F1800535482860C5E90187EF60C5E909
:101530000479AF612846EF61FFF780FB2068C1683E
:1015400041F02001C1603068C16841F02001C160F4
:101550002868C16841F02001C160294F94F83A0021
:10156000222805D023490C22E4312248FFF71EFC33
:1015700096F83A00222806D01E490C22F031A1F13B
:10158000B000FFF713FC95F83A00222806D019495D
:101590000C22FC31A1F17C00FFF708FC94F8390023
:1015A000212807D0387828B112490C22C0311148BF
:1015B000FFF78EFC96F83900212808D0787830B1F2
:1015C0000C490C22CC31A1F18C00FFF781FC95F87D
:1015D00039002128C2D0B8780028BFD005490C2294
:1015E000D831A1F15800FFF773FCB7E7303802405B
:1015F000001001401400002000440040001401408D
:1016000000000020000000000000000001020304B0
:101610000607080900000000010203043C16000848
:101620000000002014000000961400085016000866
:10163000140000200C050000A614000800000000A3
:101640000100000010000000000000000024F40071
:04000005080001AD41
:00000001FF
